:100000000C9434000C9446000C9446000C9446006A
:100010000C9446000C9446000C9446000C94460048
:100020000C9446000C9446000C9446000C94460038
:100030000C9446000C9446000C9446000C94460028
:100040000C9446000C9446000C9446000C94460018
:100050000C9446000C949B000C9446000C944600B3
:100060000C9446000C94460011241FBECFEFD8E03C
:10007000DEBFCDBF21E0A0E0B1E001C01D92A03005
:10008000B207E1F70E947B000C94D4000C940000AE
:1000900010927C00853031F4ECE7F0E080818A60DA
:1000A00080830FC0863031F4ECE7F0E08081866019
:1000B000808307C0873029F4ECE7F0E080818E6010
:1000C0008083ECE7F0E080818064808380818F779B
:1000D0008083808180628083EAE7F0E080818760AE
:1000E0008083808188608083808180688083089598
:1000F0001092C1000895F8940E94780086E00E9452
:10010000480060E074E081E00E94B00078942FEF36
:1001100089EF90E0215080409040E1F700C000005E
:10012000EAE7F0E08081806480838091790090E04C
:100130000E94CF00ECCF1F920F920FB60F921124A6
:100140008F93EF93FF93EAE7F0E0808180618083F3
:10015000FF91EF918F910F900FBE0F901F90189508
:1001600094B1926094B9109280001092810088231B
:1001700029F0E0E8F0E08081806C8083E0E8F0E046
:10018000808183608083E1E8F0E080818861808302
:100190006115744019F48081856080830895109200
:0C01A0008900809388000895F894FFCF38
:00000001FF
