:100000000C9434000C9446000C9446000C9446006A
:100010000C9446000C9446000C9446000C94460048
:100020000C9446000C9446000C9446000C94460038
:100030000C9446000C9446000C9446000C94460028
:100040000C94B4000C9446000C9446000C944600AA
:100050000C9446000C949F000C9446000C944600AF
:100060000C9446000C94460011241FBECFEFD8E03C
:10007000DEBFCDBF21E0A0E0B1E001C01D92A23003
:10008000B207E1F70E9464000C9495020C94000002
:10009000ECE7F0E01082808380818064808380813F
:1000A0008F778083808180628083EAE7F0E08081BF
:1000B000876080838081886080838081806880837E
:1000C00008951092C1000895F8940E94610060E0C4
:1000D00074E080E00E94E40060E074E080E00E9450
:1000E0001F010E944A01789485E00E944800EAE7D7
:1000F000F0E080818064808380917A0086FDFCCF6F
:10010000809179000E9441012FEF89EF90E021500A
:1001100080409040E1F700C0000086E00E94480067
:10012000EAE7F0E080818064808380917A0086FD38
:10013000FCCF8091790090E00E940601D5CF1F92FC
:100140000F920FB60F9211248F93EF93FF93EAE76C
:10015000F0E0808180618083FF91EF918F910F901B
:100160000FBE0F901F9018951F920F920FB60F920F
:1001700011242F933F934F935F936F937F938F93AC
:100180009F93AF93BF93EF93FF93809100018F5F95
:1001900080930001609179000E9458018FEF86BD25
:1001A00085B3816085BBFF91EF91BF91AF919F9126
:1001B0008F917F916F915F914F913F912F910F9010
:1001C0000FBE0F901F90189594B1926094B9109241
:1001D000800010928100882331F0E0E8F0E0808117
:1001E000806C808305C0E0E8F0E0808180688083D7
:1001F000E0E8F0E0808182608083E1E8F0E08081E7
:1002000088618083808185608083089591E09093E8
:10021000870098E590938600682F70E080E090E07A
:100220000E949C0124E036E54EE05EE30E9400025D
:100230000E946B017093890060938800089594B1C7
:10024000986094B91092B0001092B100882331F0F8
:10025000E0EBF0E08081806C808305C0E0EBF0E0B3
:10026000808180688083E0EBF0E080818360808320
:100270006115744029F4E1EBF0E0808187608083B0
:1002800008959BEA899F812D1124869586958093F8
:10029000B30008958AB181608AB985B5856085BD4E
:1002A0008FEF86BDEEE6F0E0808181608083089567
:1002B0006093010181110EC0882311F0611104C007
:1002C0008BB181608BB90895882321F0662311F0EA
:1002D0008BB11BB808950E94DF0188F09F5798F0FA
:1002E000B92F9927B751B0F0E1F0660F771F881F3B
:1002F000991F1AF0BA95C9F714C0B13091F00E9455
:10030000F901B1E008950C94F901672F782F88273F
:10031000B85F39F0B93FCCF3869577956795B3957B
:10032000D9F73EF490958095709561957F4F8F4FEA
:100330009F4F0895E89409C097FB3EF490958095EF
:10034000709561957F4F8F4F9F4F9923A9F0F92F9B
:1003500096E9BB279395F695879577956795B79519
:10036000F111F8CFFAF4BB0F11F460FF1BC06F5FFF
:100370007F4F8F4F9F4F16C0882311F096E911C011
:10038000772321F09EE8872F762F05C0662371F032
:1003900096E8862F70E060E02AF09A95660F771F46
:1003A000881FDAF7880F9695879597F9089557FD76
:1003B0009058440F551F59F05F3F71F04795880FD3
:1003C00097FB991F61F09F3F79F08795089512166A
:1003D00013061406551FF2CF4695F1DF08C0161616
:1003E00017061806991FF1CF8695710561050894C7
:1003F0000895E894BB2766277727CB0197F90895DE
:100400000E9413020C9484020E94760238F00E942B
:100410007D0220F0952311F00C946D020C94730270
:1004200011240C94FA010E94D70170F3959FC1F337
:10043000950F50E0551F629FF001729FBB27F00D92
:10044000B11D639FAA27F00DB11DAA1F649F6627E7
:10045000B00DA11D661F829F2227B00DA11D621F36
:10046000739FB00DA11D621F839FA00D611D221FF0
:10047000749F3327A00D611D231F849F600D211DD4
:10048000822F762F6A2F11249F5750409AF0F1F057
:1004900088234AF0EE0FFF1FBB1F661F771F881FC0
:1004A00091505040A9F79E3F510580F00C946D0289
:1004B0000C94FA015F3FE4F3983ED4F38695779568
:1004C0006795B795F795E7959F5FC1F7FE2B880F66
:1004D000911D9695879597F9089597F99F6780E8FC
:1004E00070E060E008959FEF80EC089500240A9486
:1004F0001616170618060906089500240A941216FF
:100500001306140605060895092E0394000C11F431
:10051000882352F0BB0F40F4BF2B11F460FF04C0DE
:0E0520006F5F7F4F8F4F9F4F0895F894FFCF6E
:00000001FF
