:100000000C9434000C9446000C9446000C9446006A
:100010000C9446000C9446000C9446000C94460048
:100020000C9446000C9446000C9446000C94460038
:100030000C9446000C9446000C9446000C94460028
:100040000C9446000C9446000C9446000C94460018
:100050000C9446000C94A5000C9446000C944600A9
:100060000C9446000C94460011241FBECFEFD8E03C
:10007000DEBFCDBF21E0A0E0B1E001C01D92A13004
:10008000B207E1F70E9465000C9406010C94000091
:10009000ECE7F0E0808380818064808380818F77CB
:1000A0008083808180628083EAE7F0E080818760DE
:1000B00080838081886080838081806880830895C8
:1000C0001092C100109200010895F8940E946000FF
:1000D00060E074E081E00E94BA0060E074E080E0DB
:1000E00090E00E94DB0078942FEF89EF90E02150A0
:1000F00080409040E1F700C0000086E00E94480088
:10010000EAE7F0E080818064808380917A0086FD58
:10011000FCCF8091790090E00E94D60085E00E949B
:100120004800EAE7F0E080818064808380910001EC
:100130008F5F8093000180917A0086FDFCCF8091D3
:10014000790090E00E94FD00CFCF1F920F920FB672
:100150000F9211248F93EF93FF93EAE7F0E08081F1
:1001600080618083FF91EF918F910F900FBE0F9070
:100170001F90189594B1926094B9109280001092DB
:100180008100882329F0E0E8F0E08081806C8083A2
:10019000E0E8F0E08081816080836115744029F49B
:1001A000E1E8F0E080818560808308951092890005
:1001B00080938800089594B1986094B91092B0002B
:1001C0001092B100882331F0E0EBF0E08081806C88
:1001D000808305C0E0EBF0E0808180688083E0EB05
:1001E000F0E08081836080836115744029F4E1EB45
:1001F000F0E080818760808308959BEA899F812D4C
:100200001124869586958093B3000895F894FFCFC6
:00000001FF
