:020000020000FC
:040000000C9422003A
:04000C000C948300CD
:100040000C949F000FEF0DBF18E01EBFEAE5F1E032
:100050007E2F00E80093610003E00093610000E060
:1000600004BD0E946E000FE007B900E008B90FEF71
:100070000AB900E004B908E105B906E204B92D980F
:1000800008E100936B0001E000936800789480E041
:1000900040E050E01CEF1BB92093C10010E0299A0A
:1000A0002A9848B9A130F1F7AA2729982A9AEAE5AF
:1000B000F1E001E0E01BE80F04910BB9923041F44C
:1000C0009927299A2A98EAE5F1E0E10F04910BB902
:1000D000543639F755270E947600E3CF05E005BD79
:1000E0000CEE06BD01E000936E0008958A3011F019
:1000F00083950895153019F013958827F7CF1127A8
:1001000088274427F3CF0F930FB70F9323B123FF13
:1001100009C024FF02C00C9499003FEF3A95F1F713
:100120004A9539F43FEF3A95F1F74395403109F498
:100130004FE01D9AD89A0F910FBF0F9118956F93AA
:100140006FB76F930CEE06BDA89A53959395A39540
:100150006F916FBF6F9118952010FCC06EEAD2BAF4
:0A016000BEE2FEF2F69E3CCE3E36F3
:00000001FF
