:020000020000FC
:040000000C9422003A
:04000C000C946100EF
:100040000C947F000FEF0DBF18E01EBFE6E1F1E05A
:100050007E2F00E80093610003E00093610000E060
:1000600004BD0E9453000FE007B900E008B90FEF8C
:100070000AB900E004B908E105B9259A2D9808E10C
:1000800000936B0001E000936800789440E050E03A
:1000900014911BB92093C10048B95436E9F755278C
:1000A0000E945B00F9CF05E005BD0CEE06BD01E046
:1000B00000936E000895239501E0E00F04910BB9C1
:1000C00008950F930FB70F9323B123FF0BC024FFA5
:1000D00002C00C9479003FEF3A95F1F74A95403011
:1000E00041F440E03FEF3A95F1F74395403109F490
:1000F0004FE01D9AD89A0F910FBF0F9118956F93EB
:100100006FB76F930CEE06BDA89A53956F916FBFB2
:100110006F9118952010FCC06EEAD2BABEE2FEF2D2
:10012000F69E3CCE3E36FCC06EEAD2BABEE2FEF28D
:06013000F69E3CCE3E36B7
:00000001FF
