:100000000C9434000C943E000C943E000C943E0082
:100010000C943E000C943E000C943E000C943E0068
:100020000C943E000C943E000C943E000C943E0058
:100030000C943E000C943E000C943E000C943E0048
:100040000C943E000C943E000C943E000C943E0038
:100050000C943E000C948B000C943E000C943E00DB
:100060000C943E000C943E0011241FBECFEFD8E04C
:10007000DEBFCDBF0E945C000C9413020C94000004
:10008000ECE7F0E01082808380818064808380814F
:100090008F778083808180628083EAE7F0E08081CF
:1000A000876080838081886080838081806880838E
:1000B00008951092C1000895F8940E94590060E0DC
:1000C00074E080E00E94A00060E074E080E00E94A4
:1000D000B500789487E00E944000EAE7F0E0808174
:1000E0008064808380917A0086FDFCCF80917900C6
:1000F0000E94C90086E00E944000EAE7F0E08081AB
:100100008064808380917A0086FDFCCF80917900A5
:100110000E94D900DFCF1F920F920FB60F921124C9
:100120008F93EF93FF93EAE7F0E080818061808313
:10013000FF91EF918F910F900FBE0F901F90189528
:100140009AB190649AB914BC15BC882321F084B587
:10015000806C84BD03C084B5806884BD84B5836031
:1001600084BD85B5856085BD08959AB190629AB9C0
:1001700015BC882321F084B5806384BD03C084B599
:10018000806284BD84B5836084BD85B5856085BD8E
:100190000895682F70E080E090E00E941A012AE93B
:1001A00039E949E15EE30E947E010E94E90067BDF2
:1001B0000895682F70E080E090E00E941A012AE91B
:1001C00039E949E15EE30E947E010E94E90068BDD1
:1001D00008950E945D0188F09F5798F0B92F9927E4
:1001E000B751B0F0E1F0660F771F881F991F1AF022
:1001F000BA95C9F714C0B13091F00E947701B1E00F
:1002000008950C947701672F782F8827B85F39F00D
:10021000B93FCCF3869577956795B395D9F73EF4BA
:1002200090958095709561957F4F8F4F9F4F089562
:10023000E89409C097FB3EF4909580957095619580
:100240007F4F8F4F9F4F9923A9F0F92F96E9BB2736
:100250009395F695879577956795B795F111F8CFB2
:10026000FAF4BB0F11F460FF1BC06F5F7F4F8F4F1D
:100270009F4F16C0882311F096E911C0772321F013
:100280009EE8872F762F05C0662371F096E8862FAB
:1002900070E060E02AF09A95660F771F881FDAF702
:1002A000880F9695879597F9089557FD9058440FB4
:1002B000551F59F05F3F71F04795880F97FB991FC5
:1002C00061F09F3F79F08795089512161306140682
:1002D000551FF2CF4695F1DF08C01616170618060F
:1002E000991FF1CF86957105610508940895E894EA
:1002F000BB2766277727CB0197F908950E949101C4
:100300000C9402020E94F40138F00E94FB0120F0DC
:10031000952311F00C94EB010C94F10111240C9431
:1003200078010E94550170F3959FC1F3950F50E03D
:10033000551F629FF001729FBB27F00DB11D639F97
:10034000AA27F00DB11DAA1F649F6627B00DA11D3D
:10035000661F829F2227B00DA11D621F739FB00DE3
:10036000A11D621F839FA00D611D221F749F332753
:10037000A00D611D231F849F600D211D822F762FEC
:100380006A2F11249F5750409AF0F1F088234AF0C9
:10039000EE0FFF1FBB1F661F771F881F9150504035
:1003A000A9F79E3F510580F00C94EB010C94780165
:1003B0005F3FE4F3983ED4F3869577956795B795BC
:1003C000F795E7959F5FC1F7FE2B880F911D9695D6
:1003D000879597F9089597F99F6780E870E060E046
:1003E00008959FEF80EC089500240A9416161706CE
:1003F00018060906089500240A9412161306140616
:1004000005060895092E0394000C11F4882352F078
:10041000BB0F40F4BF2B11F460FF04C06F5F7F4F30
:0A0420008F4F9F4F0895F894FFCF0F
:00000001FF
