S011000050726F796563746F322E737265638C
S11300000C9434000C9446000C9446000C94460066
S11300100C9440040C9446000C9446000C94460046
S11300200C9446000C9446000C9446000C94460034
S11300300C9446000C9446000C9446000C94460024
S11300400C9446000C9446000C9414040C94460042
S11300500C9446000C94FF030C9446000C94460048
S11300600C9446000C94460011241FBECFEFD8E038
S1130070DEBFCDBF21E0A0E0B1E001C01D92A831F8
S1130080B207E1F70E947A010C9470070C94000007
S1130090ECE7F0E01082808380818064808380813B
S11300A08F778083808180628083EAE7F0E08081BB
S11300B0876080838081886080838081806880837A
S11300C008954F925F926F927F92AF92BF92CF92B8
S11300D0DF92EF92FF920F931F93CF93DF93CDB7ED
S11300E0DEB729013A019B01AC01241935094609FF
S11300F0570989899A89AB89BC89BC01CD016A19E0
S11301007B098C099D090E94EF06A8019701241917
S11301103509460957090E94FF06C601B501620F59
S1130120731F841F951FDF91CF911F910F91FF9033
S1130130EF90DF90CF90BF90AF907F906F905F90E3
S11301404F90089590E0C0970895E4E6E89F9001E9
S1130150E99F300D1124CB01880F991F660F771F7B
S1130160660F771F660F771F680F791FC901860F07
S1130170971F840F951F089580910801811119C05C
S11301806091B30080E090E00E9462076091880073
S11301907091890081E090E00E94620767B582E077
S11301A090E00E94620768B583E090E00E946207D5
S11301B008958130C9F46091B30084E090E00E9416
S11301C06207609188007091890085E090E00E9448
S11301D0620767B586E090E00E94620768B587E031
S11301E090E00E94620708958230C9F46091B300E0
S11301F088E090E00E946207609188007091890015
S113020089E090E00E94620767B58AE090E00E946E
S1130210620768B58BE090E00E946207089583301E
S1130220C1F46091B3008CE090E00E946207609199
S11302308800709189008DE090E00E94620767B5A4
S11302408EE090E00E94620768B58FE090E00E9423
S1130250620708958BB184608BB92FEF80E792E039
S1130260215080409040E1F700C000008BB18B7FAB
S11302708BB92FEF80E792E0215080409040E1F766
S113028000C00000089580910801811104C08BB161
S1130290877E8BB90895813039F48BB1877F8BB910
S11302A08BB180618BB90895823039F48BB18F7E24
S11302B08BB98BB188608BB90895833019F48BB1F5
S11302C088618BB908951092070110920901109268
S11302D0080110920C018AB18C618AB987B1817FBF
S11302E087B9E8E6F0E08081826080838EE08093C5
S11302F06C000895F8940E9438050E94630160E040
S113030074E080E00E94820460E074E080E00E9477
S1130310980460E074E080E00E94090560E074E005
S113032080E00E94CE04789480910701811162C01C
S113033087E00E944800EAE7F0E0808180648083DF
S113034080917A0086FDFCCF809179000E94270578
S113035086E00E944800EAE7F0E0808180648083C0
S113036080917A0086FDFCCF8091790090E00E9414
S1130370F00485E00E944800EAE7F0E080818064B0
S1130380808380917A0086FDFCCF809179000E9461
S1130390AE0484E00E944800EAE7F0E080818064D3
S11303A0808380917A0086FDFCCF809179000E9441
S11303B0BE0480910801811104C08BB1877E8BB982
S11303C0B3CF813039F48BB1877F8BB98BB1806126
S11303D08BB9AACF823039F48BB18F7E8BB98BB1B4
S11303E088608BB9A1CF833009F09ECF8BB188612F
S11303F08BB99ACF813009F097C18BB184608BB9E6
S11304000E94430180910801813009F061C080E0BD
S113041090E00E945A07C82F8093040181E090E085
S11304200E945A078093120182E090E00E945A07CA
S11304308093130183E090E00E945A0780930A019D
S11304406C2F70E080E090E00E94F60527EE3BEF11
S113045049E25EE30E9453050E94C505862F0E946F
S113046027056091120170E080E090E00E94F6059B
S113047024E036E54EE05EE30E9453050E94C50584
S1130480CB010E94F0046091130170E080E090E0E1
S11304900E94F6052AE939E949E15EE30E94530521
S11304A00E94C505862F0E94AE0460910A0170E087
S11304B080E090E00E94F6052AE939E949E15EE32B
S11304C00E9453050E94C505862F0E94BE042CCFAE
S11304D0823009F061C084E090E00E945A07C82F7E
S11304E08093040185E090E00E945A0780931201F2
S11304F086E090E00E945A078093130187E090E021
S11305000E945A0780930A016C2F70E080E090E00B
S11305100E94F60527EE3BEF49E25EE30E94530595
S11305200E94C505862F0E9427056091120170E084
S113053080E090E00E94F60524E036E54EE05EE3BC
S11305400E9453050E94C505CB010E94F0046091EE
S1130550130170E080E090E00E94F6052AE939E991
S113056049E15EE30E9453050E94C505862F0E945F
S1130570AE0460910A0170E080E090E00E94F6050C
S11305802AE939E949E15EE30E9453050E94C50561
S1130590862F0E94BE04C8CE833009F061C088E073
S11305A090E00E945A07C82F8093040189E090E0EC
S11305B00E945A07809312018AE090E00E945A0731
S11305C0809313018BE090E00E945A0780930A0104
S11305D06C2F70E080E090E00E94F60527EE3BEF80
S11305E049E25EE30E9453050E94C505862F0E94DE
S11305F027056091120170E080E090E00E94F6050A
S113060024E036E54EE05EE30E9453050E94C505F2
S1130610CB010E94F0046091130170E080E090E04F
S11306200E94F6052AE939E949E15EE30E9453058F
S11306300E94C505862F0E94AE0460910A0170E0F5
S113064080E090E00E94F6052AE939E949E15EE399
S11306500E9453050E94C505862F0E94BE0464CEE5
S1130660843009F061CE8CE090E00E945A07C82FD4
S1130670809304018DE090E00E945A078093120158
S11306808EE090E00E945A07809313018FE090E07F
S11306900E945A0780930A016C2F70E080E090E07A
S11306A00E94F60527EE3BEF49E25EE30E94530504
S11306B00E94C505862F0E9427056091120170E0F3
S11306C080E090E00E94F60524E036E54EE05EE32B
S11306D00E9453050E94C505CB010E94F00460915D
S11306E0130170E080E090E00E94F6052AE939E900
S11306F049E15EE30E9453050E94C505862F0E94CE
S1130700AE0460910A0170E080E090E00E94F6057A
S11307102AE939E949E15EE30E9453050E94C505CF
S1130720862F0E94BE0400CE823009F0FDCD0E94C7
S11307302A01809115010E94A200909317018093D1
S11307401601809106010E94A200EC0190930E0113
S113075080930D01809105010E94A2008C01909369
S1130760100180930F01809103010E94A2009093D5
S1130770020180930101AC01B801CE010E94A500E1
S113078080930001682F70E080E090E01F921F9238
S11307901F9229E22F930F2EF6E0AF2EB12CC12C1D
S11307A0D12CF02DE12CF12C8701EA9420E030E0EB
S11307B0A9010E946100609300018091160190914B
S11307C017010F900F900F900F908130910519F43D
S11307D06093B300A9CD8230910539F4862F90E05F
S11307E090938900809388009FCD8330910511F404
S11307F067BD9ACD049709F097CD68BD95CD1F923A
S11308000F920FB60F9211248F93EF93FF93EAE7A1
S1130810F0E0808180618083FF91EF918F910F9050
S11308200FBE0F901F9018951F920F920FB60F9244
S113083011248F9380910C018F5F80930C01813080
S113084029F48091C6008093150114C0823029F4E4
S11308508091C600809306010DC0833029F48091F5
S1130860C6008093050106C08091C60080930301F1
S113087010920C018F910F900FBE0F901F9018953E
S11308801F920F920FB60F9211242F933F934F9301
S11308905F936F937F938F939F93AF93BF93EF93E4
S11308A0FF9333990BC080910701823020F48F5F4E
S11308B08093070113C01092070110C032990BC036
S11308C080910801833020F48F5F8093080106C073
S11308D01092080103C0319B0E94BC008BB382605C
S11308E08BBBFF91EF91BF91AF919F918F917F91BE
S11308F06F915F914F913F912F910F900FBE0F9089
S11309001F9018959AB190649AB9882321F084B500
S1130910806C84BD03C084B5806884BD84B5836065
S113092084BD6115744019F485B5856085BD08954D
S11309309AB190629AB9882321F084B5806384BD0A
S113094003C084B5806284BD84B5836084BD6115B1
S1130950744019F485B5856085BD0895682F70E0ED
S113096080E090E00E94F6052AE939E949E15EE376
S11309700E9482060E94C50567BD0895682F70E035
S113098080E090E00E94F6052AE939E949E15EE356
S11309900E9482060E94C50568BD089594B19260C4
S11309A094B91092800010928100882331F0E0E81D
S11309B0F0E08081806C808305C0E0E8F0E0808115
S11309C080688083E0E8F0E0808182608083E1E8F1
S11309D0F0E08081886180838081856080830895D0
S11309E091E09093870098E590938600682F70E0DB
S11309F080E090E00E94F60527EE3BEF49E25EE3DB
S1130A000E9482060E94C505709389006093880045
S1130A10089594B1986094B9882331F0E0EBF0E044
S1130A208081806C808305C0E0EBF0E08081806889
S1130A308083E0EBF0E08081836080836115744003
S1130A4029F4E1EBF0E08081876080830895682FCA
S1130A5070E080E090E00E94F6052AE939E949E176
S1130A605EE30E9482060E94C5056093B300089568
S1130A708AB18E7F8AB98AB182608AB91092C00025
S1130A80E1ECF0E01082808188698083E2ECF0E0A0
S1130A90108280818660808387E690E09093C50011
S1130AA08093C40008950E9467050C9448060E9430
S1130AB0410658F00E943A0640F029F45F3F29F0BD
S1130AC00C94310651110C947C060C9437060E9448
S1130AD0590668F39923B1F3552391F3951B550BEC
S1130AE0BB27AA2762177307840738F09F5F5F4FFD
S1130AF0220F331F441FAA1FA9F335D00E2E3AF03C
S1130B00E0E832D091505040E695001CCAF72BD053
S1130B10FE2F29D0660F771F881FBB1F26173707A4
S1130B204807AB07B0E809F0BB0B802DBF01FF27D6
S1130B3093585F4F3AF09E3F510578F00C9431067C
S1130B400C947C065F3FE4F3983ED4F38695779546
S1130B506795B795F7959F5FC9F7880F911D96958F
S1130B60879597F90895E1E0660F771F881FBB1FEB
S1130B70621773078407BA0720F0621B730B840B98
S1130B80BA0BEE1F88F7E09508950E94610688F07D
S1130B909F5798F0B92F9927B751B0F0E1F0660F3D
S1130BA0771F881F991F1AF0BA95C9F714C0B1307E
S1130BB091F00E947B06B1E008950C947B06672FA8
S1130BC0782F8827B85F39F0B93FCCF386957795AD
S1130BD06795B395D9F73EF4909580957095619596
S1130BE07F4F8F4F9F4F0895E89409C097FB3EF4C1
S1130BF090958095709561957F4F8F4F9F4F992366
S1130C00A9F0F92F96E9BB279395F69587957795E3
S1130C106795B795F111F8CFFAF4BB0F11F460FFA3
S1130C201BC06F5F7F4F8F4F9F4F16C0882311F0FB
S1130C3096E911C0772321F09EE8872F762F05C00F
S1130C40662371F096E8862F70E060E02AF09A95AA
S1130C50660F771F881FDAF7880F9695879597F99F
S1130C60089597F99F6780E870E060E008959FEF2A
S1130C7080EC089500240A9416161706180609062F
S1130C80089500240A9412161306140605060895FE
S1130C90092E0394000C11F4882352F0BB0F40F486
S1130CA0BF2B11F460FF04C06F5F7F4F8F4F9F4FC6
S1130CB0089557FD9058440F551F59F05F3F71F048
S1130CC04795880F97FB991F61F09F3F79F08795AF
S1130CD00895121613061406551FF2CF4695F1DF38
S1130CE008C0161617061806991FF1CF86957105C8
S1130CF0610508940895E894BB2766277727CB01FC
S1130D0097F908950E9495060C9448060E943A06A5
S1130D1038F00E94410620F0952311F00C9431061E
S1130D200C94370611240C947C060E94590670F327
S1130D30959FC1F3950F50E0551F629FF001729F7C
S1130D40BB27F00DB11D639FAA27F00DB11DAA1F8B
S1130D50649F6627B00DA11D661F829F2227B00DD8
S1130D60A11D621F739FB00DA11D621F839FA00D63
S1130D70611D221F749F3327A00D611D231F849FB3
S1130D80600D211D822F762F6A2F11249F5750400A
S1130D909AF0F1F088234AF0EE0FFF1FBB1F661F85
S1130DA0771F881F91505040A9F79E3F510580F04E
S1130DB00C9431060C947C065F3FE4F3983ED4F324
S1130DC0869577956795B795F795E7959F5FC1F7F2
S1130DD0FE2B880F911D9695879597F90895DB0151
S1130DE08F939F930E941E07BF91AF91A29F800D86
S1130DF0911DA39F900DB29F900D11240895052E6F
S1130E0097FB1EF400940E94160757FD07D00E941A
S1130E10290707FC03D04EF40C941607509540950F
S1130E20309521953F4F4F4F5F4F08959095809592
S1130E30709561957F4F8F4F9F4F08950E944B0788
S1130E40A59F900DB49F900DA49F800D911D11241A
S1130E500895A1E21A2EAA1BBB1BFD010DC0AA1FF7
S1130E60BB1FEE1FFF1FA217B307E407F50720F00F
S1130E70A21BB30BE40BF50B661F771F881F991F8A
S1130E801A9469F760957095809590959B01AC01D3
S1130E90BD01CF010895A29FB001B39FC001A39FDC
S1130EA0700D811D1124911DB29F700D811D11249F
S1130EB0911D0895F999FECF92BD81BDF89A9927A5
S1130EC080B50895262FF999FECF1FBA92BD81BD32
S1130ED020BD0FB6F894FA9AF99A0FBE01960895B8
S1070EE0F894FFCFB0
S9030000FC
