:100000000C9434000C9451000C9451000C94510049
:100010000C94D0030C9451000C9451000C9451009A
:100020000C9451000C9451000C9451000C9451000C
:100030000C9451000C9451000C9451000C945100FC
:100040000C9451000C9451000C94A4030C94510096
:100050000C9451000C948F030C9451000C9451009B
:100060000C9451000C94510011241FBECFEFD8E026
:10007000DEBFCDBF11E0A0E0B1E0E6E9FFE002C0E5
:1000800005900D92A831B107D9F721E0A8E1B1E0C0
:1000900001C01D92AE32B207E1F70E9415010C9427
:1000A000C9070C940000ECE7F0E0108280838081A7
:1000B0008064808380818F77808380818062808369
:1000C000EAE7F0E0808187608083808188608083B8
:1000D00080818068808308954F925F926F927F92B3
:1000E000AF92BF92CF92DF92EF92FF920F931F9346
:1000F000CF93DF93CDB7DEB729013A019B01AC0165
:10010000241935094609570989899A89AB89BC8917
:10011000BC01CD016A197B098C099D090E94500719
:10012000A801970124193509460957090E9460075B
:10013000C601B501620F731F841F951FDF91CF9118
:100140001F910F91FF90EF90DF90CF90BF90AF90F5
:100150007F906F905F904F90089590E0C0970895C2
:10016000E4E6E89F9001E99F300D1124CB01880F50
:10017000991F660F771F660F771F660F771F680F2F
:10018000791FC901860F971F840F951F08958BB1A2
:1001900084608BB92FEF82E597E02150804090403A
:1001A000E1F700C000008BB18B7F8BB92FEF82E5A8
:1001B00097E0215080409040E1F700C00000089592
:1001C00080912101811104C08BB1877E8BB9089584
:1001D000813039F48BB1877F8BB98BB180618BB95A
:1001E0000895823039F48BB18F7E8BB98BB18860E2
:1001F0008BB90895833019F48BB188618BB9089558
:100200001092200110922101109223018AB18C6179
:100210008AB987B1817F87B9E8E6F0E080818260A2
:1002200080838EE080936C000895F8940E94FA0514
:100230000E94000160E074E080E00E94440560E0FC
:1002400074E080E00E945A0560E074E080E00E9463
:10025000CB0560E074E080E00E9490057894809186
:1002600020018111A5C087E00E945300EAE7F0E079
:1002700080818064808380917A0086FDFCCF8091AC
:1002800079000E94E90586E00E945300EAE7F0E069
:1002900080818064808380917A0086FDFCCF80918C
:1002A000790090E00E94B20585E00E945300EAE7E1
:1002B000F0E080818064808380917A0086FDFCCFAD
:1002C000809179000E94700584E00E945300EAE763
:1002D000F0E080818064808380917A0086FDFCCF8D
:1002E000809179000E94800580912101811104C0D4
:1002F0008BB1877E8BB917C0813039F48BB1877F82
:100300008BB98BB180618BB90EC0823039F48BB15F
:100310008F7E8BB98BB188608BB905C0833019F49F
:100320008BB188618BB980912B010E94AD009093B5
:100330002D0180932C0180911F010E94AD009093AC
:1003400025018093240180911E010E94AD009093AD
:1003500027018093260180911B010E94AD0090939C
:100360001A018093190180912C0190912D0106971B
:1003700009F075CF8091190190911A01019719F434
:10038000109220016CCF8091190190911A0102976F
:1003900021F481E08093200162CF80911901909136
:1003A0001A01039709F05BCF82E08093200157CFB9
:1003B000813009F048C08BB184608BB980912B01EA
:1003C0000E94AD0090932D0180932C0180911F011C
:1003D0000E94AD00909325018093240180911E011D
:1003E0000E94AD00909327018093260180911B010C
:1003F0000E94AD0090931A018093190180912C0105
:1004000090912D01069709F02ACF809119019091C2
:100410001A01019719F41092200121CF809119013E
:1004200090911A01029721F481E08093200117CF67
:100430008091190190911A01039709F010CF82E081
:10044000809320010CCF823009F009CF0E94C700B1
:100450000E94E00080912B010E94AD0090932D013D
:1004600080932C0180911F010E94AD009093250183
:100470008093240180911E010E94AD00909327017A
:100480008093260180911B010E94AD0090931A0178
:10049000809319014091190150911A016091260130
:1004A0007091270180912401909125010E94B00054
:1004B0008093180180912C0190912D01019729F5CD
:1004C0006091180170E080E090E01F921F921F92EF
:1004D00024E12F930F2EF6E0AF2EB12CC12CD12C9E
:1004E000F02DE12CF12C8701EA9420E030E0A90105
:1004F0000E946C0060931801809118018093B300F2
:100500000F900F900F900F90AACE80912C01909198
:100510002D01029741F56091180170E080E090E0B4
:100520001F921F921F9226E12F930F2EF6E0AF2EFF
:10053000B12CC12CD12CF02DE12CF12C8701EA94A7
:1005400020E030E0A9010E946C00609318018091C6
:10055000180190E090938900809388000F900F908D
:100560000F900F907CCE80912C0190912D010397DC
:1005700021F56091180170E080E090E01F921F92D9
:100580001F9224E12F930F2EF6E0AF2EB12CC12C39
:10059000D12CF02DE12CF12C8701EA9420E030E001
:1005A000A9010E946C00609318018091180187BD19
:1005B0000F900F900F900F9052CE80912C01909140
:1005C0002D01049721F56091180170E080E090E022
:1005D0001F921F921F9224E12F930F2EF6E0AF2E51
:1005E000B12CC12CD12CF02DE12CF12C8701EA94F7
:1005F00020E030E0A9010E946C0060931801809116
:10060000180188BD0F900F900F900F9028CE809109
:100610002C0190912D01059709F05CC08091190182
:1006200090911A01019781F41092210180E091E0EC
:100630000E9415062FEF85EA9EE0215080409040F1
:10064000E1F700C000000BCE8091190190911A01D2
:10065000029789F481E08093210186E091E00E9475
:1006600015062FEF85EA9EE0215080409040E1F78B
:1006700000C00000F4CD8091190190911A010397F8
:1006800089F482E0809321018CE091E00E941506BC
:100690002FEF85EA9EE0215080409040E1F700C0B6
:1006A0000000DDCD8091190190911A01049709F0A5
:1006B000D6CD83E08093210182E191E00E9415066E
:1006C0002FEF85EA9EE0215080409040E1F700C086
:1006D0000000C5CD80912C0190912D01069709F065
:1006E000BECD8091190190911A01019719F41092D1
:1006F0002001B5CD8091190190911A01029721F442
:1007000081E080932001ABCD8091190190911A0175
:10071000039709F0A4CD82E080932001A0CD1F9221
:100720000F920FB60F9211248F93EF93FF93EAE786
:10073000F0E0808180618083FF91EF918F910F9035
:100740000FBE0F901F9018951F920F920FB60F9229
:1007500011248F93809123018F5F80932301813037
:1007600029F48091C60080932B0114C0823029F4B3
:100770008091C60080931F010DC0833029F48091C1
:10078000C60080931E0106C08091C60080931B01A5
:10079000109223018F910F900FBE0F901F9018950C
:1007A0001F920F920FB60F9211242F933F934F93E6
:1007B0005F936F937F938F939F93AF93BF93EF93C9
:1007C000FF9333990BC080912001823020F48F5F1A
:1007D0008093200145C11092200142C132990BC083
:1007E00080912101833020F48F5F8093210138C1F3
:1007F0001092210135C1319933C1809121018111BC
:1008000049C087E00E945300EAE7F0E080818064FD
:10081000808380917A0086FDFCCF6091790080E032
:1008200090E00E94BB0786E00E945300EAE7F0E0F8
:1008300080818064808380917A0086FDFCCF609106
:10084000790081E090E00E94BB0785E00E945300A0
:10085000EAE7F0E080818064808380917A0086FD01
:10086000FCCF6091790082E090E00E94BB0784E0B9
:100870000E945300EAE7F0E08081806480838091E9
:100880007A0086FDFCCF6091790083E090E00E94C1
:10089000BB07E6C0813009F049C087E00E945300E1
:1008A000EAE7F0E080818064808380917A0086FDB1
:1008B000FCCF6091790084E090E00E94BB0786E065
:1008C0000E945300EAE7F0E0808180648083809199
:1008D0007A0086FDFCCF6091790085E090E00E946F
:1008E000BB0785E00E945300EAE7F0E08081806466
:1008F000808380917A0086FDFCCF6091790086E04C
:1009000090E00E94BB0784E00E945300EAE7F0E019
:1009100080818064808380917A0086FDFCCF609125
:10092000790087E090E00E94BB079AC0823009F00E
:1009300049C087E00E945300EAE7F0E080818064CC
:10094000808380917A0086FDFCCF6091790088E0F9
:1009500090E00E94BB0786E00E945300EAE7F0E0C7
:1009600080818064808380917A0086FDFCCF6091D5
:10097000790089E090E00E94BB0785E00E94530067
:10098000EAE7F0E080818064808380917A0086FDD0
:10099000FCCF609179008AE090E00E94BB0784E080
:1009A0000E945300EAE7F0E08081806480838091B8
:1009B0007A0086FDFCCF609179008BE090E00E9488
:1009C000BB074EC0833009F04BC087E00E94530044
:1009D00087E00E945300EAE7F0E080818064808332
:1009E00080917A0086FDFCCF609179008CE090E0E8
:1009F0000E94BB0786E00E945300EAE7F0E0808196
:100A00008064808380917A0086FDFCCF60917900BC
:100A10008DE090E00E94BB0785E00E945300EAE76A
:100A2000F0E080818064808380917A0086FDFCCF35
:100A3000609179008EE090E00E94BB0784E00E9404
:100A40005300EAE7F0E080818064808380917A003F
:100A500086FDFCCF609179008FE090E00E94BB079B
:100A60008BB382608BBBFF91EF91BF91AF919F9150
:100A70008F917F916F915F914F913F912F910F9047
:100A80000FBE0F901F9018959AB190649AB9882361
:100A900021F084B5806C84BD03C084B5806884BDBA
:100AA00084B5836084BD6115744019F485B5856093
:100AB00085BD08959AB190629AB9882321F084B5D2
:100AC000806384BD03C084B5806284BD84B58360C7
:100AD00084BD6115744019F485B5856085BD0895A0
:100AE000682F70E080E090E00E9457062AE939E91B
:100AF00049E95DE30E94BB060E94260667BD089592
:100B0000682F70E080E090E00E9457062AE939E9FA
:100B100049E95DE30E94BB060E94260668BD089570
:100B200094B1926094B91092800010928100882351
:100B300031F0E0E8F0E08081806C808305C0E0E87F
:100B4000F0E0808180688083E0E8F0E0808182606E
:100B50008083E1E8F0E08081886180838081856026
:100B60008083089591E09093870098E590938600A4
:100B7000682F70E080E090E00E9457062AE939E98A
:100B800049E95DE30E94BB060E9426067093890036
:100B900060938800089594B1986094B9882331F0E7
:100BA000E0EBF0E08081806C808305C0E0EBF0E05A
:100BB000808180688083E0EBF0E0808183608083C7
:100BC0006115744029F4E1EBF0E080818760808357
:100BD0000895682F70E080E090E00E9457062AE9AF
:100BE00039E949E95DE30E94BB060E94260660934D
:100BF000B30008958AB18E7F8AB98AB182608AB9BA
:100C00001092C000E1ECF0E010828081886980835E
:100C1000E2ECF0E0108280818660808387E690E0DD
:100C20009093C5008093C4000895AC0120E007C0F4
:100C30009091C00095FFFCCF3093C6002F5FFA0162
:100C4000E20FF11D30813111F3CF08950E949A0611
:100C500088F09F5798F0B92F9927B751B0F0E1F07D
:100C6000660F771F881F991F1AF0BA95C9F714C02D
:100C7000B13091F00E94B406B1E008950C94B4062E
:100C8000672F782F8827B85F39F0B93FCCF3869566
:100C900077956795B395D9F73EF4909580957095C3
:100CA00061957F4F8F4F9F4F0895E89409C097FB40
:100CB0003EF490958095709561957F4F8F4F9F4F33
:100CC0009923A9F0F92F96E9BB279395F695879577
:100CD00077956795B795F111F8CFFAF4BB0F11F43A
:100CE00060FF1BC06F5F7F4F8F4F9F4F16C08823E1
:100CF00011F096E911C0772321F09EE8872F762F17
:100D000005C0662371F096E8862F70E060E02AF057
:100D10009A95660F771F881FDAF7880F9695879543
:100D200097F9089557FD9058440F551F59F05F3FAC
:100D300071F04795880F97FB991F61F09F3F79F0FD
:100D400087950895121613061406551FF2CF46957F
:100D5000F1DF08C0161617061806991FF1CF869501
:100D60007105610508940895E894BB2766277727E5
:100D7000CB0197F908950E94CE060C943F070E947C
:100D8000310738F00E94380720F0952311F00C94B9
:100D900028070C942E0711240C94B5060E94920685
:100DA00070F3959FC1F3950F50E0551F629FF001BE
:100DB000729FBB27F00DB11D639FAA27F00DB11DD7
:100DC000AA1F649F6627B00DA11D661F829F222760
:100DD000B00DA11D621F739FB00DA11D621F839FE7
:100DE000A00D611D221F749F3327A00D611D231FBD
:100DF000849F600D211D822F762F6A2F11249F570B
:100E000050409AF0F1F088234AF0EE0FFF1FBB1F0D
:100E1000661F771F881F91505040A9F79E3F5105CC
:100E200080F00C9428070C94B5065F3FE4F3983EDD
:100E3000D4F3869577956795B795F795E7959F5F76
:100E4000C1F7FE2B880F911D9695879597F9089508
:100E500097F99F6780E870E060E008959FEF80EC6D
:100E6000089500240A941616170618060906089510
:100E700000240A9412161306140605060895092E76
:100E80000394000C11F4882352F0BB0F40F4BF2BE5
:100E900011F460FF04C06F5F7F4F8F4F9F4F089525
:100EA000DB018F939F930E947F07BF91AF91A29F19
:100EB000800D911DA39F900DB29F900D1124089558
:100EC000052E97FB1EF400940E94770757FD07D06C
:100ED0000E948A0707FC03D04EF40C9477075095C4
:100EE0004095309521953F4F4F4F5F4F0895909516
:100EF0008095709561957F4F8F4F9F4F08950E9409
:100F0000AC07A59F900DB49F900DA49F800D911DDF
:100F100011240895A1E21A2EAA1BBB1BFD010DC0CE
:100F2000AA1FBB1FEE1FFF1FA217B307E407F50799
:100F300020F0A21BB30BE40BF50B661F771F881F75
:100F4000991F1A9469F760957095809590959B010B
:100F5000AC01BD01CF010895A29FB001B39FC001B4
:100F6000A39F700D811D1124911DB29F700D811DD5
:100F70001124911D0895262FF999FECF1FBA92BD15
:100F800081BD20BD0FB6F894FA9AF99A0FBE01966A
:060F90000895F894FFCF64
:100F9600506F73310A00506F73320A00506F73330B
:080FA6000A00506F73340A00C9
:00000001FF
