S011000050726F796563746F322E737265638C
S11300000C9434000C9451000C9451000C94510045
S11300100C9400060C9451000C9451000C94510063
S11300200C9451000C9451000C9451000C94510008
S11300300C9451000C9451000C9451000C945100F8
S11300400C9451000C9451000C94D4050C94510060
S11300500C9451000C94BF050C9451000C94510065
S11300600C9451000C94510011241FBECFEFD8E022
S1130070DEBFCDBF11E0A0E0B1E0E4EDF3E102C0EA
S113008005900D92A832B107D9F721E0A8E2B1E0BA
S113009001C01D92AE33B207E1F70E942A010C940D
S11300A0E8090C940000ECE7F0E010828083808182
S11300B08064808380818F77808380818062808365
S11300C0EAE7F0E0808187608083808188608083B4
S11300D080818068808308954F925F926F927F92AF
S11300E0AF92BF92CF92DF92EF92FF920F931F9342
S11300F0CF93DF93CDB7DEB729013A019B01AC0161
S1130100241935094609570989899A89AB89BC8913
S1130110BC01CD016A197B098C099D090E947D09E6
S1130120A801970124193509460957090E948D0928
S1130130C601B501620F731F841F951FDF91CF9114
S11301401F910F91FF90EF90DF90CF90BF90AF90F1
S11301507F906F905F904F900895F999FECF92BD74
S113016081BD8FB381608FBB80B50895F999FECFAF
S113017092BD81BD60BD8FB384608FBB8FB382603D
S11301808FBB089590E0C0970895E4E6E89F90013E
S1130190E99F300D1124CB01880F991F660F771F3B
S11301A0660F771F660F771F680F791FC901860FC7
S11301B0971F840F951F08958BB184608BB92FEF1F
S11301C082E597E0215080409040E1F700C00000B4
S11301D08BB18B7F8BB92FEF82E597E02150804064
S11301E09040E1F700C00000089580913101811131
S11301F004C08BB1877E8BB90895813039F48BB1FB
S1130200877F8BB98BB180618BB90895823039F4C3
S11302108BB18F7E8BB98BB188608BB90895833095
S113022019F48BB188618BB9089510923001109242
S11302303101109233018AB18C618AB987B1817F0F
S113024087B9E8E6F0E08081826080838EE0809365
S11302506C000895F8940E9427080E94150160E03C
S113026074E080E00E94710760E074E080E00E9426
S1130270870760E074E080E00E94F80760E074E0C3
S113028080E00E94BD077894809130018111E6C11D
S11302908BB18B7F8BB987E00E945300EAE7F0E0D3
S11302A080818064808380917A0086FDFCCF809178
S11302B079000E94160886E00E945300EAE7F0E005
S11302C080818064808380917A0086FDFCCF809158
S11302D0790090E00E94DF0785E00E945300EAE77E
S11302E0F0E080818064808380917A0086FDFCCF79
S11302F0809179000E949D0784E00E945300EAE700
S1130300F0E080818064808380917A0086FDFCCF58
S1130310809179000E94AD0780913101811104C060
S11303208BB1877E8BB917C0813039F48BB1877F4D
S11303308BB98BB180618BB90EC0823039F48BB12B
S11303408F7E8BB98BB188608BB905C0833019F46B
S11303508BB188618BB980913B010E94C20090935C
S11303603D0180933C0180912F010E94C200909333
S113037035018093340180912E010E94C200909334
S113038037018093360180912B010E94C200909323
S11303902A018093290180913C0190913D010697A7
S11303A0F1F48091290190912A01019719F4109296
S11303B030016ACF8091290190912A01029721F49A
S11303C081E08093300160CF8091290190912A01CE
S11303D0039709F059CF82E08093300155CF809183
S11303E03C0190913D01079709F04ECF809129017E
S11303F090912A01019709F047CF80913101811131
S113040049C087E00E945300EAE7F0E080818064FD
S1130410808380917A0086FDFCCF6091790080E032
S113042090E00E94B60086E00E945300EAE7F0E004
S113043080818064808380917A0086FDFCCF609106
S1130440790081E090E00E94B60085E00E945300AC
S1130450EAE7F0E080818064808380917A0086FD01
S1130460FCCF6091790082E090E00E94B60084E0C5
S11304700E945300EAE7F0E08081806480838091E9
S11304807A0086FDFCCF6091790083E090E00E94C1
S1130490B600FACE813009F049C087E00E945300CB
S11304A0EAE7F0E080818064808380917A0086FDB1
S11304B0FCCF6091790084E090E00E94B60086E071
S11304C00E945300EAE7F0E0808180648083809199
S11304D07A0086FDFCCF6091790085E090E00E946F
S11304E0B60085E00E945300EAE7F0E08081806472
S11304F0808380917A0086FDFCCF6091790086E04C
S113050090E00E94B60084E00E945300EAE7F0E025
S113051080818064808380917A0086FDFCCF609125
S1130520790087E090E00E94B600AECE823009F0F8
S113053049C087E00E945300EAE7F0E080818064CC
S1130540808380917A0086FDFCCF6091790088E0F9
S113055090E00E94B60086E00E945300EAE7F0E0D3
S113056080818064808380917A0086FDFCCF6091D5
S1130570790089E090E00E94B60085E00E94530073
S1130580EAE7F0E080818064808380917A0086FDD0
S1130590FCCF609179008AE090E00E94B60084E08C
S11305A00E945300EAE7F0E08081806480838091B8
S11305B07A0086FDFCCF609179008BE090E00E9488
S11305C0B60062CE833009F05FCE87E00E9453000C
S11305D0EAE7F0E080818064808380917A0086FD80
S11305E0FCCF609179008CE090E00E94B60086E038
S11305F00E945300EAE7F0E0808180648083809168
S11306007A0086FDFCCF609179008DE090E00E9435
S1130610B60085E00E945300EAE7F0E08081806440
S1130620808380917A0086FDFCCF609179008EE012
S113063090E00E94B60084E00E945300EAE7F0E0F4
S113064080818064808380917A0086FDFCCF6091F4
S113065079008FE090E00E94B60016CE813009F058
S1130660FBC08BB184608BB90E94F500809131018D
S113067081112AC080E090E00E94AD0080932D019A
S113068081E090E00E94AD008093390182E090E027
S11306900E94AD0080933A0183E090E00E94AD0097
S11306A08093320180912D010E94160880913901B6
S11306B090E00E94DF0780913A010E949D0780919B
S11306C032010E94AD0783C0813051F584E090E08F
S11306D00E94AD0080932D0185E090E00E94AD0062
S11306E08093390186E090E00E94AD0080933A0146
S11306F087E090E00E94AD008093320180912D014B
S11307000E9416088091390190E00E94DF078091D1
S11307103A010E949D07809132010E94AD0757C0A3
S1130720823051F588E090E00E94AD0080932D0165
S113073089E090E00E94AD00809339018AE090E066
S11307400E94AD0080933A018BE090E00E94AD00DE
S11307508093320180912D010E9416088091390105
S113076090E00E94DF0780913A010E949D078091EA
S113077032010E94AD072BC0833049F58CE090E034
S11307800E94AD0080932D018DE090E00E94AD00A9
S1130790809339018EE090E00E94AD0080933A018D
S11307A08FE090E00E94AD008093320180912D0192
S11307B00E9416088091390190E00E94DF07809121
S11307C03A010E949D07809132010E94AD078091F9
S11307D03B010E94C20090933D0180933C018091B3
S11307E02F010E94C20090933501809334018091BF
S11307F02E010E94C20090933701809336018091AC
S11308002B010E94C20090932A01809329018091B8
S11308103C0190913D01069709F036CD8091290164
S113082090912A01019719F4109230012DCD8091F5
S1130830290190912A01029721F481E080933001EB
S113084023CD8091290190912A01039709F01CCDB1
S113085082E08093300118CD823009F015CD0E94DA
S1130860DC000E94F50080913B010E94C20090933D
S11308703D0180933C0180912F010E94C20090931E
S113088035018093340180912E010E94C20090931F
S113089037018093360180912B010E94C20090930E
S11308A02A01809329014091290150912A016091E4
S11308B036017091370180913401909135010E9485
S11308C0C5008093280180913C0190913D010197DE
S11308D029F56091280170E080E090E01F921F925A
S11308E01F9224E12F930F2EF6E0AF2EB12CC12CD2
S11308F0D12CF02DE12CF12C8701EA9420E030E09A
S1130900A9010E946C0060932801809128018093C2
S1130910B3000F900F900F900F90B6CC80913C01D4
S113092090913D01029741F56091280170E080E0CB
S113093090E01F921F921F9226E12F930F2EF6E054
S1130940AF2EB12CC12CD12CF02DE12CF12C870130
S1130950EA9420E030E0A9010E946C006093280131
S11309608091280190E090938900809388000F90F3
S11309700F900F900F9088CC80913C0190913D0195
S1130980039721F56091280170E080E090E01F92C8
S11309901F921F9224E12F930F2EF6E0AF2EB12C5D
S11309A0C12CD12CF02DE12CF12C8701EA9420E00C
S11309B030E0A9010E946C00609328018091280115
S11309C087BD0F900F900F900F905ECC80913C01EB
S11309D090913D01049721F56091280170E080E039
S11309E090E01F921F921F9224E12F930F2EF6E0A6
S11309F0AF2EB12CC12CD12CF02DE12CF12C870180
S1130A00EA9420E030E0A9010E946C006093280180
S1130A108091280188BD0F900F900F900F9034CCD7
S1130A2080913C0190913D01059709F05CC0809153
S1130A30290190912A01019781F41092310180E0FB
S1130A4091E00E9442082FEF85EA9EE02150804009
S1130A509040E1F700C0000017CC809129019091EB
S1130A602A01029789F481E08093310186E091E0C4
S1130A700E9442082FEF85EA9EE02150804090407A
S1130A80E1F700C0000000CC8091290190912A0177
S1130A90039789F482E0809331018CE091E00E9415
S1130AA042082FEF85EA9EE0215080409040E1F714
S1130AB000C00000E9CB8091290190912A0104979C
S1130AC009F0E2CB83E08093310182E191E00E945E
S1130AD042082FEF85EA9EE0215080409040E1F7E4
S1130AE000C00000D1CB80913C0190913D0106975C
S1130AF009F0CACB8091290190912A01019781F4D0
S1130B001092300188E191E00E9442082FEF85EABB
S1130B109EE0215080409040E1F700C00000B4CB3B
S1130B208091290190912A01029789F481E08093B0
S1130B3030018DE191E00E9442082FEF85EA9EE0AA
S1130B40215080409040E1F700C000009DCB80918F
S1130B50290190912A01039709F096CB82E08093B2
S1130B60300182E291E00E9442082FEF85EA9EE084
S1130B70215080409040E1F700C0000085CB1F92D7
S1130B800F920FB60F9211248F93EF93FF93EAE71E
S1130B90F0E0808180618083FF91EF918F910F90CD
S1130BA00FBE0F901F9018951F920F920FB60F92C1
S1130BB011248F93809133018F5F809333018130AF
S1130BC029F48091C60080933B0114C0823029F43B
S1130BD08091C60080932F010DC0833029F4809149
S1130BE0C60080932E0106C08091C60080932B011D
S1130BF0109233018F910F900FBE0F901F90189594
S1130C001F920F920FB60F9211242F933F934F937D
S1130C105F936F937F938F939F93AF93BF93EF9360
S1130C20FF9333990BC080913001823020F48F5FA1
S1130C308093300142C1109230013FC132990BC000
S1130C4080913101833020F48F5F8093310135C16D
S1130C501092310132C1319930C180913101811139
S1130C6049C087E00E945300EAE7F0E08081806495
S1130C70808380917A0086FDFCCF6091790080E0CA
S1130C8090E00E94B60086E00E945300EAE7F0E09C
S1130C9080818064808380917A0086FDFCCF60919E
S1130CA0790081E090E00E94B60085E00E94530044
S1130CB0EAE7F0E080818064808380917A0086FD99
S1130CC0FCCF6091790082E090E00E94B60084E05D
S1130CD00E945300EAE7F0E0808180648083809181
S1130CE07A0086FDFCCF6091790083E090E00E9459
S1130CF0B600E3C0813009F049C087E00E94530088
S1130D00EAE7F0E080818064808380917A0086FD48
S1130D10FCCF6091790084E090E00E94B60086E008
S1130D200E945300EAE7F0E0808180648083809130
S1130D307A0086FDFCCF6091790085E090E00E9406
S1130D40B60085E00E945300EAE7F0E08081806409
S1130D50808380917A0086FDFCCF6091790086E0E3
S1130D6090E00E94B60084E00E945300EAE7F0E0BD
S1130D7080818064808380917A0086FDFCCF6091BD
S1130D80790087E090E00E94B60097C0823009F0B5
S1130D9049C087E00E945300EAE7F0E08081806464
S1130DA0808380917A0086FDFCCF6091790088E091
S1130DB090E00E94B60086E00E945300EAE7F0E06B
S1130DC080818064808380917A0086FDFCCF60916D
S1130DD0790089E090E00E94B60085E00E9453000B
S1130DE0EAE7F0E080818064808380917A0086FD68
S1130DF0FCCF609179008AE090E00E94B60084E024
S1130E000E945300EAE7F0E080818064808380914F
S1130E107A0086FDFCCF609179008BE090E00E941F
S1130E20B6004BC0833009F048C087E00E945300ED
S1130E30EAE7F0E080818064808380917A0086FD17
S1130E40FCCF609179008CE090E00E94B60086E0CF
S1130E500E945300EAE7F0E08081806480838091FF
S1130E607A0086FDFCCF609179008DE090E00E94CD
S1130E70B60085E00E945300EAE7F0E080818064D8
S1130E80808380917A0086FDFCCF609179008EE0AA
S1130E9090E00E94B60084E00E945300EAE7F0E08C
S1130EA080818064808380917A0086FDFCCF60918C
S1130EB079008FE090E00E94B6008BB382608BBB18
S1130EC0FF91EF91BF91AF919F918F917F916F911E
S1130ED05F914F913F912F910F900FBE0F901F90F4
S1130EE018959AB190649AB9882321F084B5806CDE
S1130EF084BD03C084B5806884BD84B5836084BD2B
S1130F006115744019F485B5856085BD08959AB15D
S1130F1090629AB9882321F084B5806384BD03C0AC
S1130F2084B5806284BD84B5836084BD61157440DA
S1130F3019F485B5856085BD0895682F70E080E05B
S1130F4090E00E9484082AE939E949E95DE30E94B6
S1130F50E8080E94530867BD0895682F70E080E098
S1130F6090E00E9484082AE939E949E95DE30E9496
S1130F70E8080E94530868BD089594B1926094B93A
S1130F801092800010928100882331F0E0E8F0E0B4
S1130F908081806C808305C0E0E8F0E08081806817
S1130FA08083E0E8F0E0808182608083E1E8F0E023
S1130FB0808188618083808185608083089591E049
S1130FC09093870098E590938600682F70E080E006
S1130FD090E00E9484082AE939E949E95DE30E9426
S1130FE0E8080E945308709389006093880008956C
S1130FF094B1986094B9882331F0E0EBF0E08081FB
S1131000806C808305C0E0EBF0E0808180688083A1
S1131010E0EBF0E08081836080836115744029F403
S1131020E1EBF0E08081876080830895682F70E0B1
S113103080E090E00E9484082AE939E949E95DE307
S11310400E94E8080E9453086093B30008958AB18F
S11310508E7F8AB98AB182608AB91092C000E1ECAD
S1131060F0E01082808188698083E2ECF0E01082F5
S113107080818660808387E690E09093C5008093AA
S1131080C4000895AC0120E007C09091C00095FF12
S1131090FCCF3093C6002F5FFA01E20FF11D3081BF
S11310A03111F3CF08950E94C70888F09F5798F034
S11310B0B92F9927B751B0F0E1F0660F771F881F59
S11310C0991F1AF0BA95C9F714C0B13091F00E9473
S11310D0E108B1E008950C94E108672F782F882780
S11310E0B85F39F0B93FCCF3869577956795B3959A
S11310F0D9F73EF490958095709561957F4F8F4F09
S11311009F4F0895E89409C097FB3EF4909580950D
S1131110709561957F4F8F4F9F4F9923A9F0F92FB9
S113112096E9BB279395F695879577956795B79537
S1131130F111F8CFFAF4BB0F11F460FF1BC06F5F1D
S11311407F4F8F4F9F4F16C0882311F096E911C02F
S1131150772321F09EE8872F762F05C0662371F050
S113116096E8862F70E060E02AF09A95660F771F64
S1131170881FDAF7880F9695879597F9089557FD94
S11311809058440F551F59F05F3F71F04795880FF1
S113119097FB991F61F09F3F79F087950895121688
S11311A013061406551FF2CF4695F1DF08C0161634
S11311B017061806991FF1CF8695710561050894E5
S11311C00895E894BB2766277727CB0197F90895FC
S11311D00E94FB080C946C090E945E0938F00E947E
S11311E0650920F0952311F00C9455090C945B09C2
S11311F011240C94E2080E94BF0870F3959FC1F378
S1131200950F50E0551F629FF001729FBB27F00DB0
S1131210B11D639FAA27F00DB11DAA1F649F662705
S1131220B00DA11D661F829F2227B00DA11D621F54
S1131230739FB00DA11D621F839FA00D611D221F0E
S1131240749F3327A00D611D231F849F600D211DF2
S1131250822F762F6A2F11249F5750409AF0F1F075
S113126088234AF0EE0FFF1FBB1F661F771F881FDE
S113127091505040A9F79E3F510580F00C945509B8
S11312800C94E2085F3FE4F3983ED4F38695779597
S11312906795B795F795E7959F5FC1F7FE2B880F84
S11312A0911D9695879597F9089597F99F6780E81A
S11312B070E060E008959FEF80EC089500240A94A4
S11312C01616170618060906089500240A9412161D
S11312D01306140605060895092E0394000C11F450
S11312E0882352F0BB0F40F4BF2B11F460FF04C0FD
S11312F06F5F7F4F8F4F9F4F0895DB018F939F93B5
S11313000E94AC09BF91AF91A29F800D911DA39F34
S1131310900DB29F900D11240895052E97FB1EF495
S113132000940E94A40957FD07D00E94B70907FC46
S113133003D04EF40C94A409509540953095219512
S11313403F4F4F4F5F4F08959095809570956195ED
S11313507F4F8F4F9F4F08950E94D909A59F900DED
S1131360B49F900DA49F800D911D11240895A1E2B6
S11313701A2EAA1BBB1BFD010DC0AA1FBB1FEE1F0B
S1131380FF1FA217B307E407F50720F0A21BB30B56
S1131390E40BF50B661F771F881F991F1A9469F7D2
S11313A060957095809590959B01AC01BD01CF012E
S11313B00895A29FB001B39FC001A39F700D811D2A
S11313C01124911DB29F700D811D1124911D08954A
S10713D0F894FFCFBB
S11313D4506F73310A00506F73320A00506F7333C5
S11313E40A00506F73340A007374310A0073743240
S10B13F40A007374330A0000BF
S9030000FC
