:100000000C9434000C9446000C9446000C9446006A
:100010000C948C010C9446000C9446000C94460001
:100020000C9446000C9446000C9446000C94460038
:100030000C9446000C9446000C9446000C94460028
:100040000C9446000C9446000C9462010C944600FB
:100050000C9446000C944D010C9446000C94460000
:100060000C9446000C94460011241FBECFEFD8E03C
:10007000DEBFCDBF21E0A0E0B1E001C01D92A730FE
:10008000B207E1F70E9474000C943D040C94000048
:10009000ECE7F0E01082808380818064808380813F
:1000A0008F778083808180628083EAE7F0E08081BF
:1000B000876080838081886080838081806880837E
:1000C000089510920101109202018AB18C618AB9DF
:1000D00087B1817F87B9E8E6F0E080818260808324
:1000E0008EE080936C0008950E94E202F8940E94D2
:1000F000610060E074E080E00E942C0260E074E047
:1001000080E00E94420260E074E080E00E94B3025E
:1001100060E074E080E00E947802789480910101B0
:10012000811165C085B18F7D85B987E00E94480047
:10013000EAE7F0E080818064808380917A0086FD28
:10014000FCCF809179000E94D10286E00E94480095
:10015000EAE7F0E080818064808380917A0086FD08
:10016000FCCF8091790090E00E949A0285E00E9485
:100170004800EAE7F0E080818064808380917A0023
:1001800086FDFCCF809179000E94580284E00E9495
:100190004800EAE7F0E080818064808380917A0003
:1001A00086FDFCCF809179000E9468028091020157
:1001B000811104C08BB1877E8BB9B0CF813039F407
:1001C0008BB1877F8BB98BB180618BB9A7CF823020
:1001D00039F48BB18F7E8BB98BB188608BB99ECF90
:1001E000833009F09BCF8BB188618BB997CF813079
:1001F00009F094CF85B1806285B9C0910201D0E049
:10020000CC0FDD1FCC0FDD1FCE010E942704182F5D
:1002100080930001CE0101960E942704809305017E
:10022000CE0102960E94270480930601CE01039618
:100230000E94270480930301812F0E94D1028091A4
:10024000050190E00E949A02809106010E945802E6
:10025000809103010E94680280910201811104C013
:100260008BB1877E8BB95ACF813039F48BB1877FC0
:100270008BB98BB180618BB951CF823039F48BB19E
:100280008F7E8BB98BB188608BB948CF833009F0F2
:1002900045CF8BB188618BB941CF1F920F920FB6BA
:1002A0000F9211248F93EF93FF93EAE7F0E08081A0
:1002B00080618083FF91EF918F910F900FBE0F901F
:1002C0001F9018951F920F920FB60F9211242F9323
:1002D0003F934F935F936F937F938F939F93AF93CE
:1002E000BF93EF93FF938091C600809304018091A8
:1002F00004010E94D102FF91EF91BF91AF919F91B4
:100300008F917F916F915F914F913F912F910F90BE
:100310000FBE0F901F9018951F920F920FB60F925D
:1003200011242F933F934F935F936F937F938F93FA
:100330009F93AF93BF93EF93FF9333990BC080913B
:100340000101833020F48F5F8093010171C010920E
:1003500001016EC032990BC080910201833020F4FC
:100360008F5F8093020164C01092020161C03199D5
:100370005FC087E00E944800EAE7F0E08081806487
:10038000808380917A0086FDFCCF60917900809116
:10039000020190E0880F991F880F991F0E942F0477
:1003A00086E00E944800EAE7F0E080818064808374
:1003B00080917A0086FDFCCF6091790080910201E6
:1003C00090E0880F991F880F991F01960E942F04B3
:1003D00085E00E944800EAE7F0E080818064808345
:1003E00080917A0086FDFCCF6091790080910201B6
:1003F00090E0880F991F880F991F02960E942F0482
:1004000084E00E944800EAE7F0E080818064808315
:1004100080917A0086FDFCCF609179008091020185
:1004200090E0880F991F880F991F03960E942F0450
:100430008BB382608BBBFF91EF91BF91AF919F9186
:100440008F917F916F915F914F913F912F910F907D
:100450000FBE0F901F9018959AB190649AB9882397
:1004600021F084B5806C84BD03C084B5806884BDF0
:1004700084B5836084BD6115744019F485B58560C9
:1004800085BD08959AB190629AB9882321F084B508
:10049000806384BD03C084B5806284BD84B58360FD
:1004A00084BD6115744019F485B5856085BD0895D6
:1004B000682F70E080E090E00E942E032AE939E97D
:1004C00049E15EE30E9492030E94FD0267BD089528
:1004D000682F70E080E090E00E942E032AE939E95D
:1004E00049E15EE30E9492030E94FD0268BD089507
:1004F00094B1926094B91092800010928100882388
:1005000031F0E0E8F0E08081806C808305C0E0E8B5
:10051000F0E0808180688083E0E8F0E080818260A4
:100520008083E1E8F0E0808188618083808185605C
:100530008083089591E09093870098E590938600DA
:10054000682F70E080E090E00E942E0324E036E502
:100550004EE05EE30E9492030E94FD0270938900C8
:1005600060938800089594B1986094B9882331F01D
:10057000E0EBF0E08081806C808305C0E0EBF0E090
:10058000808180688083E0EBF0E0808183608083FD
:100590006115744029F4E1EBF0E08081876080838D
:1005A0000895682F70E080E090E00E942E032AE911
:1005B00039E949E15EE30E9492030E94FD026093E3
:1005C000B30008958AB18E7F8AB98AB182608AB9F0
:1005D0001092C000E1ECF0E0108280818869808395
:1005E000E2ECF0E0108280818660808387E690E014
:1005F0009093C5008093C40008950E94710388F011
:100600009F5798F0B92F9927B751B0F0E1F0660FD6
:10061000771F881F991F1AF0BA95C9F714C0B13017
:1006200091F00E948B03B1E008950C948B03672F27
:10063000782F8827B85F39F0B93FCCF38695779546
:100640006795B395D9F73EF490958095709561952F
:100650007F4F8F4F9F4F0895E89409C097FB3EF45A
:1006600090958095709561957F4F8F4F9F4F9923FF
:10067000A9F0F92F96E9BB279395F695879577957D
:100680006795B795F111F8CFFAF4BB0F11F460FF3D
:100690001BC06F5F7F4F8F4F9F4F16C0882311F095
:1006A00096E911C0772321F09EE8872F762F05C0A9
:1006B000662371F096E8862F70E060E02AF09A9544
:1006C000660F771F881FDAF7880F9695879597F939
:1006D000089557FD9058440F551F59F05F3F71F032
:1006E0004795880F97FB991F61F09F3F79F0879599
:1006F0000895121613061406551FF2CF4695F1DF22
:1007000008C0161617061806991FF1CF86957105B1
:10071000610508940895E894BB2766277727CB01E5
:1007200097F908950E94A5030C9416040E940804EA
:1007300038F00E940F0420F0952311F00C94FF0371
:100740000C94050411240C948C030E94690370F32B
:10075000959FC1F3950F50E0551F629FF001729F66
:10076000BB27F00DB11D639FAA27F00DB11DAA1F75
:10077000649F6627B00DA11D661F829F2227B00DC2
:10078000A11D621F739FB00DA11D621F839FA00D4D
:10079000611D221F749F3327A00D611D231F849F9D
:1007A000600D211D822F762F6A2F11249F575040F4
:1007B0009AF0F1F088234AF0EE0FFF1FBB1F661F6F
:1007C000771F881F91505040A9F79E3F510580F038
:1007D0000C94FF030C948C035F3FE4F3983ED4F336
:1007E000869577956795B795F795E7959F5FC1F7DC
:1007F000FE2B880F911D9695879597F9089597F987
:100800009F6780E870E060E008959FEF80EC0895B6
:1008100000240A94161617061806090608950024DF
:100820000A9412161306140605060895092E039459
:10083000000C11F4882352F0BB0F40F4BF2B11F4CD
:1008400060FF04C06F5F7F4F8F4F9F4F0895F999EE
:10085000FECF92BD81BDF89A992780B50895262FC5
:10086000F999FECF1FBA92BD81BD20BD0FB6F89495
:0E087000FA9AF99A0FBE01960895F894FFCFF8
:00000001FF
