S011000050726F796563746F322E737265638C
S11300000C9434000C9446000C9446000C94460066
S11300100C9446000C9446000C9446000C94460044
S11300200C9446000C9446000C9446000C94460034
S11300300C9446000C9446000C9446000C94460024
S11300400C9446000C9446000C9476000C944600E4
S11300500C9446000C9461000C9446000C944600E9
S11300600C9446000C94460011241FBECFEFD8E038
S1130070DEBFCDBF21E0A0E0B1E001C01D92A13000
S1130080B207E1F70E9448000C9462020C9400004D
S11300900E941D01F89460E074E080E00E94A000DA
S11300A060E074E080E00E94B60060E074E080E00C
S11300B00E94EE0060E074E080E00E94CC0078943E
S11300C0FFCF1F920F920FB60F9211248F93EF93CD
S11300D0FF93EAE7F0E0808180618083FF91EF91F4
S11300E08F910F900FBE0F901F9018951F920F9233
S11300F00FB60F9211242F933F934F935F936F93F7
S11301007F938F939F93AF93BF93EF93FF938091CC
S1130110C60080930001809100010E940C01FF91B0
S1130120EF91BF91AF919F918F917F916F915F916B
S11301304F913F912F910F900FBE0F901F901895E4
S11301409AB190649AB9882321F084B5806C84BDF7
S113015003C084B5806884BD84B5836084BD6115A3
S1130160744019F485B5856085BD08959AB190628F
S11301709AB9882321F084B5806384BD03C084B513
S1130180806284BD84B5836084BD6115744019F4B4
S113019085B5856085BD089594B1926094B9109237
S11301A0800010928100882331F0E0E8F0E0808143
S11301B0806C808305C0E0E8F0E080818068808303
S11301C0E0E8F0E0808182608083E1E8F0E0808113
S11301D088618083808185608083089594B198606C
S11301E094B9882331F0E0EBF0E08081806C808367
S11301F005C0E0EBF0E0808180688083E0EBF0E014
S11302008081836080836115744029F4E1EBF0E020
S11302108081876080830895682F70E080E090E09B
S11302200E9469012AE939E949E15EE30E94CD01AE
S11302300E9438016093B30008958AB18E7F8AB911
S11302408AB182608AB91092C000E1ECF0E01082B9
S1130250808188698083E2ECF0E01082808186608E
S1130260808387E690E09093C5008093C40008954E
S11302700E94AC0188F09F5798F0B92F9927B75185
S1130280B0F0E1F0660F771F881F991F1AF0BA9536
S1130290C9F714C0B13091F00E94C601B1E00895CD
S11302A00C94C601672F782F8827B85F39F0B93FBF
S11302B0CCF3869577956795B395D9F73EF49095E9
S11302C08095709561957F4F8F4F9F4F0895E89467
S11302D009C097FB3EF490958095709561957F4F8A
S11302E08F4F9F4F9923A9F0F92F96E9BB27939538
S11302F0F695879577956795B795F111F8CFFAF448
S1130300BB0F11F460FF1BC06F5F7F4F8F4F9F4F78
S113031016C0882311F096E911C0772321F09EE8D6
S1130320872F762F05C0662371F096E8862F70E03C
S113033060E02AF09A95660F771F881FDAF7880F16
S11303409695879597F9089557FD9058440F551F32
S113035059F05F3F71F04795880F97FB991F61F043
S11303609F3F79F087950895121613061406551FBA
S1130370F2CF4695F1DF08C0161617061806991F26
S1130380F1CF86957105610508940895E894BB271B
S113039066277727CB0197F908950E94E0010C9412
S11303A051020E94430238F00E944A0220F0952331
S11303B011F00C943A020C94400211240C94C701DD
S11303C00E94A40170F3959FC1F3950F50E0551F4F
S11303D0629FF001729FBB27F00DB11D639FAA2796
S11303E0F00DB11DAA1F649F6627B00DA11D661FE5
S11303F0829F2227B00DA11D621F739FB00DA11D06
S1130400621F839FA00D611D221F749F3327A00DBF
S1130410611D231F849F600D211D822F762F6A2F5B
S113042011249F5750409AF0F1F088234AF0EE0FC0
S1130430FF1FBB1F661F771F881F91505040A9F7ED
S11304409E3F510580F00C943A020C94C7015F3F23
S1130450E4F3983ED4F3869577956795B795F79529
S1130460E7959F5FC1F7FE2B880F911D96958795A1
S113047097F9089597F99F6780E870E060E0089520
S11304809FEF80EC089500240A94161617061806A8
S11304900906089500240A94121613061406050684
S11304A00895092E0394000C11F4882352F0BB0F15
S11304B040F4BF2B11F460FF04C06F5F7F4F8F4F78
S10B04C09F4F0895F894FFCF4B
S9030000FC
