:020000020000FC
:100000000FEF0DBF18E01EBF3F0376574B577D47DC
:100010007F4F6F793C737C6C00E80093610003E0D4
:100020000093610000E004BD0E943D0040E0E0E07C
:10003000389A4098399A41983A9A42983B9A43980C
:10004000449A3C98459A3D980FEF0AB900E00BB9E5
:1000500090E001E0E8E0F0E001E0E00F04910BB98E
:1000600000C005B30130E9F70CEE06BDA89A439530
:100070004436B9F7442706C0F4CF05E005BD0CEEC1
:1000800006BD08959395892F88B9EBCF0FEF0A9598
:10009000F1F7339BFBCF01E0E00F04910BB90FEFB9
:1000A0000A95F1F701E0E01B04910BB9349BEECF08
:00000001FF
