:020000020000FC
:040000000C94080054
:10000C000C9431000FEF0DBF18E01EBF0FE007B9C5
:10001C0000E008B900E004B908E105B9259A2D986B
:10002C0008E100936B0001E000936800789440E0D5
:10003C00413029F0423039F0433049F0F9CF409A41
:10004C0041984298F5CF409A419A4298F1CF409A04
:10005C00419A429AEDCF0F930FB70F9323B124FD22
:10006C000C943E004395443049F441E00C94440018
:10007C0024FD0C9444004A9509F443E01D9AD89A47
:08008C000F910FBF0F911895B1
:00000001FF
