S00D00004C616230362E73726563A2
S11300000C9434000C9451000C9451000C94510045
S11300100C9451000C9451000C9451000C94510018
S11300200C9451000C9451000C9451000C94510008
S11300300C9451000C9451000C9451000C945100F8
S11300400C9451000C9451000C947C000C945100BD
S11300500C9451000C9467000C9451000C945100C2
S11300600C9451000C94510011241FBECFEFD8E022
S1130070DEBFCDBF11E0A0E0B1E0E0E9F1E002C0F5
S113008005900D92AC30B107D9F721E0ACE0B1E0B6
S113009001C01D92AD30B207E1F70E9453000C94E9
S11300A0C6000C9400008FEF84B915B883E087B9BB
S11300B018B80E949A00789480E091E00E94B500FC
S11300C08FE39CE90197F1F700C00000F9CF1F927C
S11300D00F920FB60F9211248F93EF93FF93EAE7D9
S11300E0F0E0808180618083FF91EF918F910F9088
S11300F00FBE0F901F9018951F920F920FB60F927C
S113010011248F939F938091C60080930C0180915A
S11301100C0185B980910C01829586958695837032
S113012098B1892B88B99F918F910F900FBE0F9032
S11301301F9018958AB18E7F8AB98AB182608AB974
S11301401092C000E1ECF0E0108280818869808325
S1130150E2ECF0E0108280818660808387E690E0A4
S11301609093C5008093C4000895AC0120E007C0BB
S11301709091C00095FFFCCF3093C6002F5FFA0129
S1130180E20FF11D30813111F3CF0895F894FFCFC0
S10F0190484F4C41204D554E444F000098
S9030000FC
