S00D00004C616230362E73726563A2
S11300000C9434000C9446000C9446000C94460066
S11300100C9446000C9446000C9446000C94460044
S11300200C9446000C9446000C9446000C94460034
S11300300C9446000C9446000C9446000C94460024
S11300400C9446000C9446000C9492000C944600C8
S11300500C9446000C947D000C9446000C944600CD
S11300600C9446000C94460011241FBECFEFD8E038
S1130070DEBFCDBF21E0A0E0B1E001C01D92A13000
S1130080B207E1F70E9461000C94D2000C940000C6
S1130090ECE7F0E01082808380818064808380813B
S11300A08F778083808180628083EAE7F0E08081BB
S11300B0876080838081886080838081806880837A
S11300C008958FEF84B915B883E087B918B80E94F2
S11300D0B000789487E00E944800EAE7F0E080816D
S11300E080648083809179000E94CB008FE39CE937
S11300F00197F1F700C00000EDCF1F920F920FB6E9
S11301000F9211248F93EF93FF93EAE7F0E080813D
S113011080618083FF91EF918F910F900FBE0F90BC
S11301201F9018951F920F920FB60F9211248F9360
S11301309F938091C600809300018091000185B94E
S113014080910001829586958695837098B1892B5C
S113015088B99F918F910F900FBE0F901F901895A3
S11301608AB18E7F8AB98AB182608AB91092C0003E
S1130170E1ECF0E01082808188698083E2ECF0E0B9
S1130180108280818660808387E690E09093C5002A
S11301908093C40008959091C00095FFFCCF809394
S10B01A0C6000895F894FFCF96
S9030000FC
