:020000020000FC
:040000000C94080054
:10000C000C9437000FEF0DBF18E01EBF00E80093F3
:10001C00610003E0009361000CE00AB9289A209873
:10002C00299A21982D982D9A0FE007B9002708B925
:10003C0003E000936B0001E0009368007894442780
:10004C005527662768B950FF0C942E000C9432008B
:10005C005A9A5B980C9428005A985B9A0C94280036
:10006C00F1CF0F930FB70F9350FF0C943F000C94EC
:10007C00450003B101FF639500FF516006C003B159
:10008C0001FF6A9500FF5E7F00C0D89A0F910FBFE9
:04009C000F91189513
:00000001FF
