:020000020000FC
:040000000C9422003A
:04000C000C945C01F3
:040024000C944D01EA
:100040000C9442010FEF0DBF18E01EBFE4E6F3E091
:1000500000E80093610003E00093610000E004BD4C
:100060000E94080100E00093B0000E941001789403
:100070002093C1000FEF0AB910E01BB907B918B9F6
:1000800000E004B90FE105B90FE100936B0001E056
:100090000093680000E204B900E008B93327222782
:1000A0004427552766277727AA2755E049E087E1A7
:1000B00072E063E02D9840984198012D043619F4C0
:1000C00011240E941A01A0FF0C9468000C94770080
:1000D000A1FF0C946D000C947200A2FF0C9486009A
:1000E0000C94FA00A2FF0C94F2000C940001A1FF02
:1000F0000C947C000C948100A2FF0C94BC000C9426
:10010000FD00A2FF0C94F6000C9404012D98409A77
:10011000022D013051F42224429A43984498459884
:10012000E4E6F3E0E40F04910BB9032D023051F43F
:1001300033244298439A44984598E4E6F3E0E50F67
:1001400004910BB9042D033051F444244298439890
:100150004498459AE4E6F3E0E60F04910BB9052DC7
:100160000430B1F6552442984398449A4598E4E601
:10017000E70F04910BB9A1CF2D98409A022D0130C1
:1001800051F42224429A439844984598E4E6F3E0D7
:10019000E40F04910BB9032D023051F4332442983B
:1001A000439A44984598E4E6F3E0E50F04910BB9CF
:1001B000042D033051F44424429843984498459ABE
:1001C000E4E6F3E0E60F04910BB9052D0430B1F637
:1001D000552442984398449A4598E4E6E70F0491E1
:1001E0000BB96BCF2D984098419A67CF2D984098C6
:1001F000419A63CF41982D9A60CF41982D9A5DCF57
:100200002D984098419859CF2D984098419855CFB6
:1002100005E005BD0CEE06BD01E000936E000895FB
:1002200007E00093B1000FEF0093B20001E00093EC
:10023000700008952A3011F023950895353019F093
:1002400033952227F7CF3327222743954A3009F0E9
:10025000F1CF4427553011F05395ECCF5527442763
:100260008395883139F063956A3009F0E3CF6627CA
:100270007395E0CF22273327442755276627772712
:100280008827D8CF1F931FB71F930CEE06BDA89ADF
:1002900013941F911FBF1F9118951F931FB71F9392
:1002A0000FEF0093B200B89A23943394439453947D
:1002B0001F911FBF1F9118950F930FB70F93A0FFAA
:1002C0000C9464010C947301A1FF0C9469010C94CB
:1002D0006E01A2FF0C9482010C949A01A2FF0C946F
:1002E00092010C94A201A1FF0C9478010C947D0161
:1002F000A2FF0C9486010C94A601A2FF0C94960117
:100300000C94A60103B100FFA39523C003B100FF25
:10031000A39501FF439502FF6A9503FF639504FFD0
:10032000639517C003B100FFA39513C003B100FF8D
:10033000A3950FC003B100FFA3950BC003B100FF4D
:10034000A39507C003B100FFA39503C003B100FF4D
:10035000A395A63009F4AA27D89A0F910FBF0F9141
:1003600018952010FCC06EEAD2BABEE2FEF2F69EEC
:100370003CCE3E361F1D1F1E1F1E1F1F1E1F1E1F91
:00000001FF
