:020000020000FC
:040000000C9422003A
:04000C000C9443010C
:040024000C94340103
:100040000C9428010FEF0DBF18E01EBFE2E3F3E0B0
:1000500000E80093610003E00093610000E004BD4C
:100060000E94EE0000E00093B0000E94F600789439
:1000700022272093C1000FEF0AB910E01BB907B97E
:1000800018B900E004B90FE105B90FE100936B0066
:1000900001E00093680000E204B900E008B93327EA
:1000A00022274427552766277727AA2750E041E0D3
:1000B00087E172E063E02D9840984198062D023365
:1000C00011F46624489A012D043619F411240E9473
:1000D0000001A0FF0C946E000C947D00A1FF0C9415
:1000E00073000C947800A2FF0C948C000C94AA006E
:1000F000A2FF0C94A2000C94B200A1FF0C94820009
:100100000C948700A2FF0C9492000C94AE00A2FF06
:100110000C94A6000C94B6002D98409841980E942B
:10012000BA00CCCF2D984098419A0E94BA004A302C
:1001300009F0C4CF553019F053954427F8CF55270F
:100140004427BCCF2D98409A4198B8CF2D98409A1B
:10015000419AB4CF2D9A40984198B0CF2D9A4098AB
:10016000419AACCF2D9A409A4198A8CF2D9A409AA7
:10017000419AA4CF429A439844984598E2E3F3E029
:10018000E40F04910BB9052D0430E9F7552442988A
:10019000439A44984598E2E3F3E0E50F04910BB9E4
:1001A000052D0430E9F75524429843984498459A20
:1001B000E2E3F3E0E60F04910BB9052D0430E9F713
:1001C000552442984398449A4598E2E3E70F0491F6
:1001D0000BB9052D0430E9F75524089505E005BD58
:1001E0000CEE06BD01E000936E00089507E0009359
:1001F000B1000FEF0093B20001E00093700008958A
:100200002A3011F023950895353019F033952227BF
:10021000F7CF3327222743954A3009F0F1CF4427FF
:10022000553011F05395ECCF5527442783958831ED
:1002300039F063956A3009F0E3CF66277395E0CF14
:100240002227332744275527662777278827D8CFA3
:100250001F931FB71F930CEE06BDA89A13946394C7
:100260001F911FBF1F9118951F931FB71F930FEF6B
:100270000093B200B89A23943394439453941F91FB
:100280001FBF1F9118950F930FB70F93A0FF0C94EA
:100290004B010C945A01A1FF0C9450010C94550190
:1002A000A2FF0C9469010C948101A2FF0C947901C6
:1002B0000C948901A1FF0C945F010C946401A2FFCE
:1002C0000C946D010C948D01A2FF0C947D010C9493
:1002D0008D0103B100FFA39523C003B100FFA395D7
:1002E00001FF439502FF4A9503FF639504FF6A955A
:1002F00017C003B100FFA39513C003B100FFA3957E
:100300000FC003B100FFA3950BC003B100FFA3957D
:1003100007C003B100FFA39503C003B100FFA3957D
:10032000A63009F4AA27D89A0F910FBF0F911895FC
:100330002010FCC06EEAD2BABEE2FEF2F69E3CCEBF
:0E0340003E361F1D1F1E1F1E1F1F1E1F1E1FCD
:00000001FF
