:020000020000FC
:040000000C9422003A
:04000C000C94FA0056
:040024000C94EB004D
:100040000C94E0000FEF0DBF18E01EBFE0E6F2E0F9
:1000500000E80093610003E00093610000E004BD4C
:100060000E94A60000E00093B0000E94AE007894C9
:100070002093C1000FEF0AB910E01BB907B918B9F6
:1000800000E004B90FE105B90FE100936B0001E056
:100090000093680000E204B900E008B93327222782
:1000A0004427552766277727AA2755E049E087E1A7
:1000B00072E063E0A0FF0C945F000C946700A1FF66
:1000C0000C9464000C946700A2FF0C946C00A1FFD8
:1000D0000C946C000C946C00022D013051F422241D
:1000E000429A439844984598E0E6F2E0E40F049180
:1000F0000BB9032D013051F433244298439A4498AC
:100100004598E0E6F2E0E50F04910BB9042D0130CB
:1001100051F44424429843984498459AE0E6F2E02A
:10012000E60F04910BB9052D023049F4552442988D
:100130004398449A4598E0E6E70F04910BB9012DE6
:10014000043651F611240E94B800B4CF05E005BD75
:100150000CEE06BD01E000936E00089507E00093E9
:10016000B1000FEF0093B20001E00093700008951A
:100170002A3011F023950895353019F03395222750
:10018000F7CF3327222743954A3009F0F1CF442790
:10019000553011F05395ECCF55274427839588317E
:1001A00039F063956A3009F0E3CF66277395E0CFA5
:1001B0002227332744275527662777278827D8CF34
:1001C0001F931FB71F930CEE06BDA89A13941F919F
:1001D0001FBF1F9118951F931FB71F930FEF009319
:1001E000B200B89A23943394439453941F911FBF41
:1001F0001F9118950F930FB70F93A0FF0C94020156
:100200000C941101A1FF0C9407010C940C01A2FFA6
:100210000C9420010C942701A2FF0C9425010C944E
:100220002901A1FF0C9416010C941B01A2FF0C9450
:1002300024010C942A01A2FF0C9426010C942A019B
:1002400003B100FFA39506C005C004C003C002C0EF
:1002500001C000C0D89A0F910FBF0F9118952010C0
:10026000FCC06EEAD2BABEE2FEF2F69E3CCE3E364C
:00000001FF
